:020000040000FA
:0400000007EF00F016
:10000800698209ED00F05CEF06F00600D9CF0BF02D
:10001800DACF0CF0F0A013EF00F015EF00F01AEFB4
:1000280000F0000E326E010E316EF090F2A41FEF58
:1000380000F021EF00F041EF02F0F80ED76E300E1D
:10004800D66E39503A10D8B42CEF00F02EEF00F0ED
:100058004AEF00F0374A382A880E371807E1130E9E
:100068003818D8A43AEF00F03CEF00F04EEF00F05B
:10007800000E346E020E336E000E386E000E376EB0
:10008800000E3A6E000E396E4EEF00F0000E386E1C
:10009800000E376E61506210D8A455EF00F057EF8C
:1000A80000F0F8EF01F080A05CEF00F05EEF00F0E8
:1000B80069EF00F0000E426E010E416EF90ECB6E34
:1000C8007C0EBE6E8280BEEF00F041504210D8B464
:1000D80070EF00F072EF00F0A5EF00F0320E2F186D
:1000E8003010D8A47AEF00F07CEF00F0A5EF00F014
:1000F800000E386E000E376E000E426E000E416E16
:10010800000EBE6E8290D8903534D96E3634DA6ED1
:10011800800ED926000EDA22DE04DE10D8B497EF5E
:1001280000F099EF00F09DEF00F0000E346E010E24
:10013800336E354A362A000E306E000E2F6EBEEF33
:1001480000F041504210D8B4ACEF00F0AEEF00F030
:10015800BEEF00F030BEBCEF00F0305007E1320EC9
:100168002F5CD8B0BAEF00F0BCEF00F0BEEF00F0A3
:100178002F4A302A80A4C3EF00F0C5EF00F0D0EF7B
:1001880000F0000E3E6E010E3D6EA60ECB6E530EB5
:10019800BE6E828626EF01F03D503E10D8B4D7EFF0
:1001A80000F0D9EF00F00DEF01F0320E2F183010EB
:1001B800D8A4E1EF00F0E3EF00F00DEF01F0000E3E
:1001C800386E000E376E000E3E6E000E3D6E000E4D
:1001D800BE6E8296D8903534D96E3634DA6E800E7B
:1001E800D926000EDA22020EDE18DE10D8B4FFEF90
:1001F80000F001EF01F005EF01F0000E346E010E82
:10020800336E354A362A000E306E000E2F6E26EFFA
:1002180001F03D503E10D8B414EF01F016EF01F094
:1002280026EF01F030BE24EF01F0305007E1320E26
:100238002F5CD8B022EF01F024EF01F026EF01F097
:100248002F4A302A80A62BEF01F02DEF01F038EF6E
:1002580001F0000E3C6E010E3B6E7C0ECB6E3E0E26
:10026800BE6E82888EEF01F03B503C10D8B43FEF51
:1002780001F041EF01F075EF01F0320E2F18301048
:10028800D8A449EF01F04BEF01F075EF01F0000E33
:10029800386E000E376E000EBE6E8298000E3C6EF1
:1002A800000E3B6ED8903534D96E3634DA6E800E37
:1002B800D926000EDA22030EDE18DE10D8B467EF56
:1002C80001F069EF01F06DEF01F0000E346E010EE0
:1002D800336E354A362A000E306E000E2F6E8EEFC2
:1002E80001F03B503C10D8B47CEF01F07EEF01F0F8
:1002F8008EEF01F030BE8CEF01F0305007E1320E86
:100308002F5CD8B08AEF01F08CEF01F08EEF01F08E
:100318002F4A302A80A293EF01F095EF01F0A0EF69
:1003280001F0000E406E010E3F6EC70ECB6E630EDD
:10033800BE6E8282F8EF01F03F504010D8B4A7EFAC
:1003480001F0A9EF01F0DDEF01F0320E2F183010A7
:10035800D8A4B1EF01F0B3EF01F0DDEF01F0000E2A
:10036800386E000E376E000E406E000E3F6E000EA7
:10037800BE6E8292D8903534D96E3634DA6E800EDD
:10038800D926000EDA22040EDE18DE10D8B4CFEF1C
:1003980001F0D1EF01F0D5EF01F0000E346E010E3F
:1003A800336E354A362A000E306E000E2F6EF8EF87
:1003B80001F03F504010D8B4E4EF01F0E6EF01F04F
:1003C800F8EF01F030BEF4EF01F0305007E1320EE3
:1003D8002F5CD8B0F2EF01F0F4EF01F0F8EF01F084
:1003E8002F4A302AF8EF01F047504810D8A4FFEF01
:1003F80001F001EF02F01CEF02F0819C49C001F00E
:100408004AC002F0000E046E0A0E036E69EC05F095
:10041800D890013602364B0E0124D96E000E022008
:10042800DA6EDF50836E818E474A482A40EF02F029
:1004380047044810D8A423EF02F025EF02F040EF5C
:1004480002F0819E49C001F04AC002F0000E046E1D
:100458000A0E036E07EC05F0D890013602364B0EF3
:100468000124D96E000E0220DA6EDF50836E818C73
:10047800000E486E000E476EF2940CC0DAFF0BC0F7
:10048800D9FF699211000F0EC16E0F0E936E92681C
:10049800000E946E000E956ED59CD59AD596F80EE2
:1004A800D516D58EF80ED76E300ED66EF294F28A27
:1004B800F28EF086F19AF28E000ECB6E000EBE6EB2
:1004C800CF0EBD16BD50F00B0C09BD6E060ECA6EE0
:1004D800D6CF0DF0D7CF0EF0B4EC06F0829082960E
:1004E800829882928198819A819C819E31503210A3
:1004F800D8A481EF02F083EF02F09FEF02F0828030
:10050800828682888282070E2E6E170E2D6E6A0EE4
:10051800E82EFED72D2EFCD72E2EFAD700D08290AB
:1005280082968298829210EC04F0000E466E010EBC
:10053800456E7AEF02F031043210D8A4A6EF02F02B
:10054800A8EF02F019EF03F00B0E2E6E260E2D6E9B
:100558005E0EE82EFED72D2EFCD72E2EFAD745C0DC
:1005680049F046C04AF043C01FF044C020F045C0DF
:1005780021F046C022F063C023F064C024F041ECAF
:1005880003F0000E626E000E616E000E3A6E010EF0
:10059800396E45C00DF046C00EF09AEC06F0000E1C
:1005A8003A6E000E396E000E626E010E616E000E1C
:1005B800366E000E356E33503410D8A4E6EF02F0D4
:1005C800E8EF02F011EF03F05F50451807E16050C3
:1005D8004618D8A4F2EF02F0F4EF02F0FAEF02F0B6
:1005E800A4EC04F0000E326E020E316E434A442A27
:1005F800454A462A2C0E631808E16404D8B407EF6C
:1006080003F009EF03F03DEF03F0CE0E6324636EB1
:10061800FF0E6420646E7AEF02F0000E326E020E56
:10062800316E2CEC06F07AEF02F0020E311832101F
:10063800D8A421EF03F023EF03F03DEF03F0000E01
:10064800326E000E316E000E466E000E456E000EC4
:10065800446E000E436E000E606E000E5F6E030E59
:10066800646E200E636E000E346E000E336E7AEFE9
:1006780002F07AEF02F007EF00F01FC029F020C067
:100688002AF062EF03F0C1EC05F0030E1914276E8F
:10069800286A010E2724256E000E2820266ED89081
:1006A8002934D96E2A34DA6E800ED926000EDA2261
:1006B80025C0DEFF26C0DDFF294A2A2A2150295CF1
:1006C8002A50800A256E2250800A2558D8A06FEF3C
:1006D80003F071EF03F047EF03F0000E2C6E000EED
:1006E8002B6E00EF04F08280F90ECB6E7C0EBE6E8E
:1006F80023C00DF024C00EF07FEC06F0000EBE6E95
:100708008290000E0E6EC80E0D6E7FEC06F0FEEFA6
:1007180003F08286A60ECB6E530EBE6E23C00DF07C
:1007280024C00EF07FEC06F0000EBE6E8296000E1E
:100738000E6EC80E0D6E7FEC06F0FEEF03F0828899
:100748007C0ECB6E3E0EBE6E23C00DF024C00EF0A4
:100758007FEC06F0000EBE6E8298000E0E6EC80E7C
:100768000D6E7FEC06F0FEEF03F08282C70ECB6EB3
:10077800630EBE6E23C00DF024C00EF07FEC06F0B1
:10078800000EBE6E8292000E0E6EC80E0D6E7FECCD
:1007980006F0FEEF03F0030E0E6EE80E0D6E7FEC12
:1007A80006F0FEEF03F0D8902B34D96E2C34DA6EB5
:1007B800800ED926000EDA22DECF25F0DDCF26F016
:1007C8002650000AD8B4EBEF03F0CFEF03F0255022
:1007D800010AD8B477EF03F0030AD8B48DEF03F019
:1007E800010AD8B4A3EF03F0070AD8B4B9EF03F0AD
:1007F800CFEF03F02B4A2C2A21502B5C2C50800A77
:10080800256E2250800A2558D8A00DEF04F00FEF6E
:1008180004F0D7EF03F012009AEF04F05FC049F03C
:1008280060C04AF080A41BEF04F01DEF04F037EF1E
:1008380004F08286A60ECB6E530EBE6E070E0E6EA9
:10084800170E0D6E6A0EE82EFED70D2EFCD70E2E53
:10085800FAD700D0000EBE6E8296000E606E080EAB
:100868005F6E9AEF04F080A03CEF04F03EEF04F0D6
:1008780058EF04F08280F90ECB6E7C0EBE6E070E28
:100888000E6E170E0D6E6A0EE82EFED70D2EFCD7D3
:100898000E2EFAD700D0000EBE6E8290000E606E4B
:1008A8000E0E5F6E10EF04F080A25DEF04F05FEFB4
:1008B80004F079EF04F08282C70ECB6E630EBE6E31
:1008C800070E0E6E170E0D6E6A0EE82EFED70D2E51
:1008D800FCD70E2EFAD700D0000EBE6E8292000E04
:1008E800606E140E5F6E9AEF04F080A67EEF04F03F
:1008F80080EF04F010EF04F082887C0ECB6E3E0E81
:10090800BE6E070E0E6E170E0D6E6A0EE82EFED71F
:100918000D2EFCD70E2EFAD700D0000EBE6E829890
:10092800000E606E1F0E5F6E10EF04F03150321033
:10093800D8B4A1EF04F0A3EF04F012EF04F0120012
:10094800000E106E000E0F6EF8EF04F08280F90EA4
:10095800CB6E7C0EBE6E050E0E6E0F0E0D6EF10E7A
:10096800E82EFED70D2EFCD70E2EFAD700F0829077
:100978008286A60ECB6E530EBE6E050E0E6E0F0E41
:100988000D6EF10EE82EFED70D2EFCD70E2EFAD7DF
:1009980000F0829682887C0ECB6E3E0EBE6E050EEF
:1009A8000E6E0F0E0D6EF10EE82EFED70D2EFCD733
:1009B8000E2EFAD700F082988282C70ECB6E630E95
:1009C800BE6E050E0E6E0F0E0D6EF10EE82EFED7E2
:1009D8000D2EFCD70E2EFAD700F082920F4A102A5D
:1009E800000ECB6E000EBE6E10BE04EF05F0105068
:1009F80009E1050E0F5CD8A004EF05F006EF05F03D
:100A0800AAEF04F01200000E066E04BE10EF05F007
:100A18000EEF05F016EF05F0036C041ED8B0042A9B
:100A2800010E066E02BE1DEF05F01BEF05F023EF69
:100A380005F0016C021ED8B0022A010E061A000E3B
:100A4800086E000E076E03500410D8B42EEF05F0A0
:100A580030EF05F058EF05F0010E056E38EF05F0A0
:100A6800D89003360436052A04AE3DEF05F03FEF73
:100A780005F034EF05F0D890073608360350015CCE
:100A880004500258D8A04BEF05F04DEF05F052EF97
:100A980005F00350015E0450025A0780D8900432D2
:100AA8000332052E3FEF05F00650D8B45EEF05F08F
:100AB80060EF05F064EF05F0076C081ED8B0082A4F
:100AC80007C001F008C002F01200000E066E02BE58
:100AD80072EF05F070EF05F078EF05F0016C021E7B
:100AE800D8B0022A010E066E04BE7FEF05F07DEF36
:100AF80005F083EF05F0036C041ED8B0042A0350F8
:100B08000410D8B48AEF05F08CEF05F0B0EF05F0CB
:100B1800010E056E94EF05F0D89003360436052AC9
:100B280004AE99EF05F09BEF05F090EF05F0035048
:100B3800015C04500258D8A0A4EF05F0A6EF05F018
:100B4800AAEF05F00350015E0450025AD89004320F
:100B58000332052E9BEF05F00650D8B4B6EF05F02A
:100B6800B8EF05F0BCEF05F0016C021ED8B0022A00
:100B780001C001F002C002F0120065C00DF066C0AD
:100B88000EF067C00FF068C010F02D0E116E7F0ECA
:100B9800126E950E136E4C0E146EF7EC05F0010EE6
:100BA8000D24656E000E0E20666E000E0F20676E17
:100BB800000E1020686E65C01BF066C01CF067C090
:100BC8001DF068C01EF0120EEFEF05F0D8901E322F
:100BD8001D321C321B32E82EEAEF05F01BC019F05B
:100BE8001CC01AF01200000E156E000E166E000ED4
:100BF800176E000E186E0DA004EF06F006EF06F053
:100C08000EEF06F011501526125016221350172217
:100C180014501822D8901136123613361436D8903C
:100C280010320F320E320D320D500E100F10101000
:100C3800D8A421EF06F023EF06F0FFEF05F015C06A
:100C48000DF016C00EF017C00FF018C010F012000B
:100C580033043410D8A433EF06F035EF06F04BEF29
:100C680006F0F90ECB6E7C0EBE6E8280828682887C
:100C78008282290E0E6E960E0D6E7F0EE82EFED71E
:100C88000D2EFCD70E2EFAD700F053EF06F0F90E12
:100C9800CB6E7C0EBE6E828082863DEF06F0000E23
:100CA800CB6E000EBE6E829082968298829212005F
:100CB8008E0EF66E0D0EF76E000EF86E00EE4BF00F
:100CC80010EE1AF00900F5CFEEFFE550E150FAE119
:100CD80000EE80F03E0EEE6AE806FDE100EE2FF031
:100CE8001C0EEE6AE806FDE169906992000EF86E46
:100CF800000147EF02F08CEF06F0060E0F6E300E83
:100D0800E82EFED70F2EFCD700D00D06D8A00E0671
:100D18000EBE99EF06F00E5006E10D04D8B097EF1D
:100D280006F099EF06F081EF06F01200A7EF06F043
:100D380033503410D8B4A3EF06F0A5EF06F0A7EFB0
:100D480006F0B3EF06F00D50351807E10E503618CF
:100D5800D8A4B1EF06F0B3EF06F09CEF06F012004E
:100D6800FF0E0F6EFF0E106E0DC011F00EC012F0C8
:100D78000F5011261050122211C065F012C066F0F3
:100D8800676A686A12003F0006005B004F00660051
:100D98006D007D0007007F00670008000100200348
:020000040020DA
:08000000FFFFFFFFFFFFFFFF00
:020000040030CA
:0E000000FF02191EFF8385FF0FC00FE00F40A7
:00000001FF
